E50005300GM0002020An50001753RNTA                                    INDUSTRIE CIGARETTE                     Tunis                                   Boulevard 15 Octobre                                                    00421080                                                                                                                                                                                 
L50005300GM00020200000011001162YAM000 PharmacieCentraledeTunisie              Commercedemedicament                    LaCharguiaTunis                                                                                                         000000024907667000000000373615000000000863848000000000215962000000000000000000000000000000000000000000000000000000000000000000024318090                          Morale
L50005300GM00020200000021011864DAM000 OFFICEDELAVIATIONCIVILEETDESAEROPORTS   TRANSPORTAIERIEN                        AEROPORTINTERNATIONALDETUNISCARTHAGEBP137et147                                                                          000000012299600000000000184494000000001963840000000000490960000000000000000000000000000000000000000000000000000000000000000000011624146                          Morale
L50005300GM00020200000031933065GNM000 ANGED                                   GESTIONDESDECHETS                       6RUEALAMINEALABASSI1002TUNIS                                                                                            000000025402057000000000000000000000001778144000000000444536000000000000000000000000000000000000000000000000000000000000000000024957521                          Morale
L50005300GM00020200000041002454MAM000 StTunisiennedesPeintures                AstralEtanche                           GP1RoutedeSousseKm552033Megrine                                                                                         000000002740333000000000041105000000000437532000000000109383000000000000000000000000000000000000000000000000000000000000000000002589845                          Morale
L50005300GM00020200000051002264HAM000 SNDP                                    Distributiondepetrole                   AVMedAliAkilCitOlympique1053Tunis                                                                                       000000003581867000000000053728000000000571900000000000142975000000000000000000000000000000000000000000000000000000000000000000003385164                          Morale
L50005300GM00020200000061001214SAM000 Renault                                 CommercedevoitureetPdeRechange          AvKheireddinePacha1002TunisBlv                                                                                          000000006480000000000000097200000000001034640000000000258660000000000000000000000000000000000000000000000000000000000000000000006124140                          Morale
L50005300GM000202000000711189281XAM000GLOBALTECHNIK                           CommercediversProduits                  33RUEKHEIREDDINEBARBAROUSSE                                                                                             000000000242733000000000003641000000000038760000000000009690000000000000000000000000000000000000000000000000000000000000000000000229402                          Morale
L50005300GM00020200000081566417PAM000 LAPASSIONDELEAU                         VENTECHLORE                             TUNIS                                                                                                                   000000000500000000000000007500000000000079828000000000019957000000000000000000000000000000000000000000000000000000000000000000000472543                          Morale
L50005300GM000202000000911220404ZAM000CE2ENGINEERING                          ETUDEDEPROJET                           2RUELABIDAPPARTEMENT26                                                                                                  000000010449815000000000000000000000001358476000000000339619000000000000000000000000000000000000000000000000000000000000000000010110196                          Morale
L50005300GM000202000001011199191BAM000STFP                                    COMMERCEDIVERS                          TUNIS                                                                                                                   000000000428400000000000006426000000000068400000000000017100000000000000000000000000000000000000000000000000000000000000000000000404874                          Morale
L50005300GM00020200000111000318WPM000 CTN                                     NAVIGATION                              5AVDARHAMMARSKKJOED                                                                                                     000000001677867000000000025168000000000267900000000000066975000000000000000000000000000000000000000000000000000000000000000000001585724                          Morale
L50005300GM00020200000121003120WAM000 LaBrosse                                DiversArticlesencristal                 ZIlaCharguia2035Tunis                                                                                                   000000000461000000000000006915000000000073592000000000018398000000000000000000000000000000000000000000000000000000000000000000000435687                          Morale
L50005300GM00020200000131005607ZAM000 Tunimatec                               Commercedumateriel                      58AvdeCarthageTunis                                                                                                     000000007282200000000000109233000000000955516000000000238879000000000000000000000000000000000000000000000000000000000000000000006934088                          Morale
L50005300GM00020200000141937892DAM000 Italcar                                 ReparationAppareilVisiteJeuxdePatin     Rue8612ZICharguia2035Tunis                                                                                              000000007971267000000000119569000000001268432000000000317108000000000000000000000000000000000000000000000000000000000000000000007534590                          Morale
L50005300GM00020200000151002172EBM000 StlePneu                                CommerceduPneu                          47AvdeCarthage1000Tunis                                                                                                 000000004172800000000000062592000000000666256000000000166564000000000000000000000000000000000000000000000000000000000000000000003943644                          Morale
L50005300GM00020200000161013889XAM000 SOTETEL                                 Tlcommunication                         RuedeentreoreneursZICharguiaIIAro                                                                                       000000005117000000000000076755000000000817000000000000204250000000000000000000000000000000000000000000000000000000000000000000004835995                          Morale
L50005300GM00020200000171001741MAM000 SOCOTU                                  TRANSPORTMARITIME                       ZONEPORTIERERADES                                                                                                       000000003782133000000000056732000000000442600000000000110650000000000000000000000000000000000000000000000000000000000000000000003614751                          Morale
L50005300GM00020200000181001878EAM000 Revelon                                 CommercedeFer                           92AvdeCarthageBP861001Tunis                                                                                             000000002658667000000000039880000000000424496000000000106124000000000000000000000000000000000000000000000000000000000000000000002512663                          Morale
L50005300GM00020200000191000521XAM000 Boudrant                                FournituregeneraleindAgrETautomo        53AvdeCarthage1000Tunis                                                                                                 000000006057800000000000090867000000000973620000000000243405000000000000000000000000000000000000000000000000000000000000000000005723528                          Morale
L50005300GM00020200000201001574QAM000 Stafim                                  CommercedevoituresPeugeot               RueduLacLmanLesBergesduLac1053                                                                                          000000032024667000000000480370000000005113292000000001278323000000000000000000000000000000000000000000000000000000000000000000030265974                          Morale
L50005300GM00020200000211014239WAM000 ACTAPAVE                                Controletechnique                       51RuedesentrepZIArianaBP110Tunis                                                                                        000000003592667000000000053890000000001805748000000000451437000000000000000000000000000000000000000000000000000000000000000000003087340                          Morale
L50005300GM00020200000221011826XAM000 STEM                                    Commercedemballage                      2RuedepapierM2grineRiadh                                                                                                000012972117400000000194581761000002071178564000000517794641000000000000000000000000000000000000000000000000000000000000000012259740998                          Morale
L50005300GM00020200000231006110GAM000 STAM                                    AcconageetManutention                   AgencedeRadesTunis                                                                                                      000001444399133000000021665987000000229936820000000057484205000000000000000000000000000000000000000000000000000000000000000001365248941                          Morale
L50005300GM00020200000241001547MAM000 SOTURASC                                CommercediversProduits                  83AvdeLondres1000Tunis                                                                                                  000000041446400000000000621696000000006617492000000001654373000000000000000000000000000000000000000000000000000000000000000000039170331                          Morale
L50005300GM00020200000251000335XAM000 COMPTOIRGENERALEDEQUINCAILLERIE         QUINCAILLERIE                           TUNIS                                                                                                                   000000000561067000000000008416000000000089584000000000022396000000000000000000000000000000000000000000000000000000000000000000000530255                          Morale
L50005300GM00020200000261002784DAM000 SAM                                     MATERIELAUTOMOBILE                      48AVKHEIREDDINEPACHA1002TUNISBP1332                                                                                     000000019860667000000000297910000000001416404000000000354101000000000000000000000000000000000000000000000000000000000000000000019208656                          Morale
L50005300GM00020200000271001949CAM000 Ennakel                                 Diversservicesmaintenance               ZICharguiaTunis                                                                                                         000000027804200000000000417063000000004439332000000001109833000000000000000000000000000000000000000000000000000000000000000000026277304                          Morale
L50005300GM00020200000281000879BAM000 LeMaterielHidromek                      ConcessionnaireagreenmaterieldebatimEtTra45rueIbnKhaldoun1001Tunis                                                                                               000000008864467000000000132967000000001334244000000000333561000000000000000000000000000000000000000000000000000000000000000000008397939                          Morale
L50005300GM00020200000291000271YAM000 AURESAUTOSA                             DISTRIBUTEURSOFFICIELCITROENENTUNISIE   28RUE8600ZILACHARGUIA12035TUNISCARTHAGE                                                                                 000000024164000000000000362460000000003754204000000000938551000000000000000000000000000000000000000000000000000000000000000000022862989                          Morale
L50005300GM000202000003011518604EAM000STEHERITIERSALITOUMI                    Locataire                               71avenuerepubliqueHAMMAMLIF                                                                                             000000178500000000000002677500000000002850000000000000712500000000000000000000000000000000000000000000000000000000000000000000175110000                          Morale
L50005300GM00020200000311432297KAM000 FRIGOTECHNIQUE                          VENTEMATEIELELECTRONIQUE                93AVBELLEVUEELWARDIA1009TUNIS                                                                                           000000008533200000000000127998000000001362448000000000340612000000000000000000000000000000000000000000000000000000000000000000008064590                          Morale
L50005300GM00020200000321006036PAM000 LaGravureModerne                        Diversservices                          2RueMustaphaMbarek1000TunisTunisie                                                                                      000000001501733000000000022526000000000239780000000000059945000000000000000000000000000000000000000000000000000000000000000000001419262                          Morale
L50005300GM00020200000331004091NAM000 SIFCOLDistribution                      DistributiondeColle                     RoutedeGabesKM2BP161Sfax3018Tunisie                                                                                     000000298321267000000004474819000000047631176000000011907794000000000000000000000000000000000000000000000000000000000000000000281938654                          Morale
L50005300GM00020200000341030103YAM000 SOTITHER                                INSTALLATIONTECHNIQUEETINSDUSTRIELLE    RUEHAMOUDAPACHADOUARHICHERZIKSARSAIDTUNIS                                                                               000000032141933000000000482129000000005131896000000001282974000000000000000000000000000000000000000000000000000000000000000000030376830                          Morale
L50005300GM00020200000351002471NBM000 STETUNISIENNESOTRADIES                  DIVERSROULEMENT                         RUEN8611ZICHARGUIA1080TUNIS                                                                                             000000023752800000000000356292000000002048040000000000512010000000000000000000000000000000000000000000000000000000000000000000022884498                          Morale
L50005300GM00020200000361000573KAM000 PareninATLASCOPO                        CommPiecesderechangedevoiture           91AvdeCarthage1000Tunis                                                                                                 000000035955800000000000539337000000005015728000000001253932000000000000000000000000000000000000000000000000000000000000000000034162531                          Morale
L50005300GM00020200000371006942RAM000 Sttunisiennedeplexi                     Commercedeplexi                         40rueKhreddineBarbarousseTunisTuni                                                                                      000000018880000000000000283200000000002956664000000000739166000000000000000000000000000000000000000000000000000000000000000000017857634                          Morale
L50005300GM00020200000381840319WBM000 CIFArenault                             FOURNITUREAUTO                          57ruealidarghouth                                                                                                       000000003667400000000000055011000000000585596000000000146399000000000000000000000000000000000000000000000000000000000000000000003465990                          Morale
L50005300GM00020200000391042732MAM000 SOCIETERAPIDEBUREAUTIQUESERVICE         DIVERSSCEBUREAU                         7RUEMONASTIR1002TUNIS                                                                                                   000000007659667000000000114895000000001222984000000000305746000000000000000000000000000000000000000000000000000000000000000000007239026                          Morale
L50005300GM00020200000401005390BAM000 Cottasc                                 Ventesarticlessanitaires                48RueChadliKallala1002Tunis                                                                                             000000000208600000000000003129000000000033300000000000008325000000000000000000000000000000000000000000000000000000000000000000000197146                          Morale
L50005300GM00020200000411000812FAM000 LquipementModerne                       CommDquipement                          86AvdeCarthage1000Tunis                                                                                                 000000005128333000000000076925000000000818820000000000204705000000000000000000000000000000000000000000000000000000000000000000004846703                          Morale
L50005300GM00020200000421013887VBM000 STELASECURITE                           QUINCAILLERIE                           33BISRUEDItalie                                                                                                         000000000862733000000000012941000000000137748000000000034437000000000000000000000000000000000000000000000000000000000000000000000815355                          Morale
L50005300GM000202000004311130710FAM000Interprofil                             FenetreCoulissa                         Rue9007N5DjebelDhelloud1080Tunis                                                                                        000000015101067000000000226516000000002411100000000000602775000000000000000000000000000000000000000000000000000000000000000000014271776                          Morale
L50005300GM00020200000441033474MAM000 CigaFiltre                              Baguettesfiltre                         TourD5meEtImmSPRICARIANA                                                                                                000005448654200000000081729813000000869953312000000217488328000000000000000000000000000000000000000000000000000000000000000005149436059                          Morale
L50005300GM00020200000451009331GAM000 SME                                     fabricationdemballageencarton           GP1ROUTEMSAKENMESSADINE                                                                                                 000000351946667000000005279200000000056193216000000014048304000000000000000000000000000000000000000000000000000000000000000000332619163                          Morale
L50005300GM00020200000461514143WAM000 ENTABDESSALEMNAJAR                      PRODUITSANITAIRE                        4RUEVESLEDOUBOSVEILLE                                                                                                   000000002507200000000000037608000000000400396000000000100099000000000000000000000000000000000000000000000000000000000000000000002369493                          Morale
L50005300GM00020200000471047047TAM000 EDFELECTRIQUE                           CommerceArticleselectriques             76RueHoucineBouzaienneTunis1001                                                                                         000000002894800000000000043422000000000462208000000000115552000000000000000000000000000000000000000000000000000000000000000000002735826                          Morale
L50005300GM00020200000481045845JAM000 STEMONDIALEQUIPEMENT                    QUINQUERIEGENERAL                       19RUEALIBENGHEDAHEM1001                                                                                                 000000001940133000000000029102000000000309776000000000077444000000000000000000000000000000000000000000000000000000000000000000001833587                          Morale
L50005300GM0002020000049109277TAM000  MEUBLATEX                               ventesdesmeubles                        Routedetuniselhamdalekbira4011hammamsousse                                                                              000000005619133000000000084287000000000897180000000000224295000000000000000000000000000000000000000000000000000000000000000000005310551                          Morale
L50005300GM00020200000511000863SAM000 LACCUMULATIONTUNASSAD                   COMMERCEDEBATTERIESIND                  RUEDELAFONTEZIBENARROUS2013TUNIS                                                                                        000000005987600000000000089814000000001142136000000000285534000000000000000000000000000000000000000000000000000000000000000000005612252                          Morale
L50005300GM00020200000521032536EAM000 RESTAURANTDARELJELD                     RESTAURATION                            5ruedareljeldlakasbah                                                                                                   000000001440000000000000021600000000000094200000000000023550000000000000000000000000000000000000000000000000000000000000000000001394850                          Morale
L50005300GM00020200000531026133AAM000 SOTUVENT                                VENTILATION                             MGIRACENTRE2082FOUCHANAMRIRA2082                                                                                        000000011826667000000000177400000000001888296000000000472074000000000000000000000000000000000000000000000000000000000000000000011177193                          Morale
L50005300GM00020200000541007091BAM000 CEMTunisie                              Reparationmateriels                     ZIBP357030Mateur                                                                                                        000000006048067000000000090721000000000965668000000000241417000000000000000000000000000000000000000000000000000000000000000000005715929                          Morale
L50005300GM0002020000055100041kAM000  AACCSINDBADGROUP                        TRANSITAIRE                             4ET6IMPN1RUE8603CHARGUIA1                                                                                               000000003675933000000000055139000000000586928000000000146732000000000000000000000000000000000000000000000000000000000000000000003474062                          Morale
L50005300GM00020200000561176794SBC000 EtsBenYoussef                           Commpneumatiquecaoutchouindustriel      40bisRuedusahelMontfleuryTunis                                                                                          000000014356133000000000215342000000002292196000000000573049000000000000000000000000000000000000000000000000000000000000000000013567742                          Morale
L50005300GM00020200000571496792WAM000 INTEGRATIONPIECEMECANIQUES              MECANIQUE                               12RUEDEREYROUTH2004MEGRINE                                                                                              000000048161733000000000722426000000007689684000000001922421000000000000000000000000000000000000000000000000000000000000000000045516886                          Morale
L50005300GM00020200000581001395PAM000 SOCOOPEC                                CommercedePiecedeRechange               66AvdeCarthage1008Tunis                                                                                                 000000005111733000000000076676000000000816168000000000204042000000000000000000000000000000000000000000000000000000000000000000004831015                          Morale
L50005300GM00020200000591015075YAM000 GenralElectronicSystems                 DiversImprimantes                       RueduLacDAmnecyLesBergesduLac10                                                                                         000000011317133000000000169757000000001521948000000000380487000000000000000000000000000000000000000000000000000000000000000000010766889                          Morale
L50005300GM00020200000601939112XPM000 BIS                                     VENTEMATERIELINFORMATIQUE               TUNIS                                                                                                                   000000012735267000000000191029000000002019924000000000504981000000000000000000000000000000000000000000000000000000000000000000012039257                          Morale
L50005300GM00020200000611002436KAM000 STPCColla                               Colle                                   RoutedelaSoukraKm81080Tunis                                                                                             000000018217867000000000273268000000002908764000000000727191000000000000000000000000000000000000000000000000000000000000000000017217408                          Morale
L50005300GM00020200000621046015FAM000 PIMA                                    VENTEPIECEINDUSETMATERIELAGRICOL        ROUTEDENAASSENKM75ELMOUROUJ61135NAASSEN                                                                                 000000008717333000000000130760000000001391864000000000347966000000000000000000000000000000000000000000000000000000000000000000008238607                          Morale
L50005300GM00020200000631032995EAM000 GS1TunisiaTunicode                      DiversTunicode                          ImmeubleEnnourCentreUrbainNord1082                                                                                      000000002082533000000000031238000000000332500000000000083125000000000000000000000000000000000000000000000000000000000000000000001968170                          Morale
L50005300GM00020200000641029997GAM000 Sonelect                                CommercedeBascule                       22RueSaidAbouBakerTunis                                                                                                 000000001294667000000000019420000000000206716000000000051679000000000000000000000000000000000000000000000000000000000000000000001223568                          Morale
L50005300GM00020200000651539117BAM000 SteFerdaousAllumnium                    Travauxenalluminium                     AvMongiSlimKsarSaidTunis                                                                                                000000008166133000000000122492000000001303824000000000325956000000000000000000000000000000000000000000000000000000000000000000007717685                          Morale
L50005300GM00020200000661299843PAM000 CETRAM                                  PapierAluminium                         ZISidiRezigRuedesUsines                                                                                                 000004837890800000000072568362000000772200076000000193050019000000000000000000000000000000000000000000000000000000000000000004572272419                          Morale
L50005300GM00020200000671425129RAM000 Samitel                                 DiversTlphonique                        29RuedeLibanLafayette1002Tunis                                                                                          000000001262000000000000018930000000000201496000000000050374000000000000000000000000000000000000000000000000000000000000000000001192696                          Morale
L50005300GM00020200000681433074AAM000 STEMARITIMEGENMAR                       Transportmaritime                       ZPORTUAIRERADESPORT2040                                                                                                 000000013433467000000000201502000000006345092000000001586273000000000000000000000000000000000000000000000000000000000000000000011645692                          Morale
L50005300GM00020200000691035544SAM000 Sebit                                   EquipementBureautique                   18RuedIrak1002Tunis                                                                                                     000000005866667000000000088000000000000936700000000000234175000000000000000000000000000000000000000000000000000000000000000000005544492                          Morale
L50005300GM00020200000701003874JAM000 SIA                                     COMMPIECESDERECHANGES                   28RUEDETURQUITUNIS                                                                                                      000000025845533000000000387683000000004126592000000001031648000000000000000000000000000000000000000000000000000000000000000000024426202                          Morale
L50005300GM0002020000071132963WAM000  EQUIPEMENTVOITUREEUROPEENNES            VENTEPIECEDERECHANGE                    TUNIS                                                                                                                   000000000547400000000000008211000000000087400000000000021850000000000000000000000000000000000000000000000000000000000000000000000517339                          Morale
L50005300GM00020200000721002352GBM000 SOQUIMA                                 QuincaillerieetMaterielAgricole         55AvdeCarthageTunis                                                                                                     000000001921933000000000028829000000000306872000000000076718000000000000000000000000000000000000000000000000000000000000000000001816386                          Morale
L50005300GM00020200000731000246XAM000 COTUSAL                                 VENTEPRODUITALIMENTAIRE                 TUNIS                                                                                                                   000000007497000000000000112455000000001197000000000000299250000000000000000000000000000000000000000000000000000000000000000000007085295                          Morale
L50005300GM00020200000741633593HAM000 SMOKFIL                                 Baguettesfiltre                         Rue8601ZICharguia                                                                                                       000000072592667000000001088890000000011242060000000002810515000000000000000000000000000000000000000000000000000000000000000000068693262                          Morale
L50005300GM00020200000751054914FAP000 MohamedMrad                             Locataire                               45AvdeKoweit8050HammametTunisie                                                                                         000000006811132000000000000000000000005176460000000001294115000000000000000000000000000000000000000000000000000000000000000000005517017                          Morale
L50005300GM00020200000761433136XAM000 HPAutomatisme                           Serviceenautomatisme                    68Rue18janvier1001Tunis                                                                                                 000000004988133000000000074822000000000796432000000000199108000000000000000000000000000000000000000000000000000000000000000000004714203                          Morale
L50005300GM00020200000771644599ZAM000 CIFEDE                                  DiversFormation                         15RueAliIbenAbiTalebBelvedreTuni                                                                                        000000006180000000000000000000000000001174200000000000293550000000000000000000000000000000000000000000000000000000000000000000005886450                          Morale
L50005300GM00020200000781026685EAM000 SERDI                                   MaterieldeControle                      CentreSaid2N21AvHabibBouguiba203                                                                                        000000129832000000000001947480000000020094864000000005023716000000000000000000000000000000000000000000000000000000000000000000122860804                          Morale
L50005300GM00020200000791002410ZAM000 SOTUNOL                                 DiversSuperlatex                        RoutedesousseKm6Megrine2033Tunis                                                                                        000000011096600000000000166449000000001771720000000000442930000000000000000000000000000000000000000000000000000000000000000000010487221                          Morale
L50005300GM00020200000801632938JAM000 MSCTUNISIE                              TRANSPORTMARITIME                       ZISAINTGOBAIN2033MEGRINETUNIS                                                                                           000000054964267000000000824464000000066117484000000016529371000000000000000000000000000000000000000000000000000000000000000000037610432                          Morale
L50005300GM00020200000811607986YPM000 MaerskTunisie                           ServicedeChargementetdechargementsurestariesRouteduPort2040RadsTunis                                                                                                000000117820358000000000044900000000022385868000000005596467000000000000000000000000000000000000000000000000000000000000000000112178991                          Morale
L50005300GM00020200000821798725MAC000 HYDROMEC                                VENTEPIECEDERECHANGE                    25RUEDEGHBEJI1000TUNIS                                                                                                  000000000060933000000000000914000000000009732000000000002433000000000000000000000000000000000000000000000000000000000000000000000057586                          Morale
L50005300GM000202000008310183189TAC000MAGHREBTRANSMISSIONS                    Fournituresindustrielles                LOTN51RueMGHIRAZONEINDUSTRIELLEMGHIRAIIIFOUCHENA                                                                        000000023137333000000000347060000000003694204000000000923551000000000000000000000000000000000000000000000000000000000000000000021866722                          Morale
L50005300GM00020200000841610223JAM000 DeltaImpression                         Impression                              ZIMghiraRoutedeFouchana2082Ben                                                                                          000000679851933000000010197779000000108547812000000027136953000000000000000000000000000000000000000000000000000000000000000000642517201                          Morale
L50005300GM00020200000851035825ZAM000 PolycoqTunisie                          FabricationdeMouleenPolystyreneExpanse  32AvDarFadhallaSoukraTunis                                                                                              000000227159067000000003407386000000036269096000000009067274000000000000000000000000000000000000000000000000000000000000000000214684407                          Morale
L50005300GM00020200000861034815SAM000 SOCIETEJAOUHARA                         COMMSODIUM                              VOIEZ4STGOBAIN1009TUNIS                                                                                                 000000317440733000000004761611000000050683820000000012670955000000000000000000000000000000000000000000000000000000000000000000300008167                          Morale
L50005300GM00020200000871632938JAM000 MEDITERRANERSHIPPING                    SURESTARIE                              ZISaintGobainMegriene2033                                                                                               000000000297467000000000004462000000000734920000000000183730000000000000000000000000000000000000000000000000000000000000000000000109275                          Morale
L50005300GM00020200000881617898EAM000 STEALUSUD                               MENUISERIEALUMINIUM                     RoutedesousseGP11009Tunis                                                                                               000000002737000000000000041055000000000437000000000000109250000000000000000000000000000000000000000000000000000000000000000000002586695                          Morale
L50005300GM00020200000891767182GBM000 COGESC                                  Equipementsanitaireetchauffage          44AvdeLondres1000Tunis                                                                                                  000000001467133000000000022007000000000234256000000000058564000000000000000000000000000000000000000000000000000000000000000000001386562                          Morale
L50005300GM00020200000901339982ZAP000 HATEMLATIRI                             ARCHITECTURE                            avenuedelarepubliquehammamsousse                                                                                        000000007518215000000000000000000000000977368000000000244342000000000000000000000000000000000000000000000000000000000000000000007273873                          Morale
L50005300GM00020200000911650265RAC000 STETORKHANI                             COMMERCEENINSTRUMENTSDEPESAGE           9BISRUEMALTASGHIRA1000TUNIS                                                                                             000000002975000000000000044625000000000475000000000000118750000000000000000000000000000000000000000000000000000000000000000000002811625                          Morale
L50005300GM00020200000921433049ZBM000 LeProfessionnel                         Quincaillerie                           63AvdeCarthage1000Tunis                                                                                                 000000048832400000000000732486000000007796780000000001949195000000000000000000000000000000000000000000000000000000000000000000046150719                          Morale
L50005300GM00020200000931047452DAM000 StdesproduitssidururgiquesPROSID        CommProduitssidururgiques               ZILotsN232014MgrineRiadh                                                                                                000000004443267000000000066649000000000709424000000000177356000000000000000000000000000000000000000000000000000000000000000000004199262                          Morale
L50005300GM00020200000941005058RBM000 SACMI                                   Commercedumaterielindustriel            ZIAriana1080Tunis                                                                                                       000000051822067000000000777331000000007664464000000001916116000000000000000000000000000000000000000000000000000000000000000000049128620                          Morale
L50005300GM00020200000951544644EAM000 CHEMICALINKCOMPANY                      equipementbureautique                   20ruedukoweitTunis1002                                                                                                  000000007288000000000000109320000000001163636000000000290909000000000000000000000000000000000000000000000000000000000000000000006887771                          Morale
L50005300GM00020200000961434307CAC000 MAKREMBENCHORBAL                        equipementbureautique                   8RueEljaziraTUNIS                                                                                                       000000001190000000000000017850000000000190000000000000047500000000000000000000000000000000000000000000000000000000000000000000001124650                          Morale
L50005300GM000202000009711080844QAM00 GEM                                     CompresseurRotat                        49RUEABDERRAZEKCHRAIBI1001Tunis                                                                                         000000000411267000000000006169000000000065664000000000016416000000000000000000000000000000000000000000000000000000000000000000000388682                          Morale
L50005300GM00020200000981820475XAM000 BAECBUREAUAFRICAINETUDESCONSEIL         ETUDEETCONSEIL                          RsidenceKahia22metageApp252040Rads                                                                                      000000016283538000000000000000000000002116860000000000529215000000000000000000000000000000000000000000000000000000000000000000015754323                          Morale
L50005300GM00020200000991750167XAM000 EtsENNADHAFABENJEMIA                    venteengrosproduitdentretienetarticlesdemenageetparfumerie23RuedesGRANDSLACS2070LAMARRSA                                                                                          000000003156600000000000047349000000000503996000000000125999000000000000000000000000000000000000000000000000000000000000000000002983252                          Morale
L50005300GM000202000010011307434GPM000CMACGM                                  TransportHAMFret                        RouteduPortbp772Rads2004Tunisie                                                                                         000000143064133000000002145962000000119643132000000029910783000000000000000000000000000000000000000000000000000000000000000000111007388                          Morale
L50005300GM00020200001021033480KAM000 PREVENTEC                               CONTROLETECHNIQUE                       7RUEDIraq2emeetage1002belevdere                                                                                         000000004972000000000000074580000000000572000000000000143000000000000000000000000000000000000000000000000000000000000000000000004754420                          Morale
L50005300GM00020200001031425798KAM000 ARCHIMED                                ARCHITECTURE                            7IBNELJAZAR1002LAFAYETTETUNIS                                                                                           000000004295723000000000000000000000000558444000000000139611000000000000000000000000000000000000000000000000000000000000000000004156112                          Morale
L50005300GM00020200001041047056VAM000 MondialElectric                         Electricit                              2022AhmedTliliTunis                                                                                                     000000003794800000000000056922000000000468748000000000117187000000000000000000000000000000000000000000000000000000000000000000003620691                          Morale
L50005300GM00020200001051001522CAM000 SOTUCEP                                 CHAUFFAGEECLERAGEETPLOMBERIE            8RUEABOUELHASSANGABSICITEELKHADRA1003TUNIS                                                                              000000012451067000000000186766000000001672924000000000418231000000000000000000000000000000000000000000000000000000000000000000011846070                          Morale
L50005300GM00020200001061782351VAM000 JMSPlus                                 DiversConfectionetVenteenDetaildeFlexibleCitErriadhGP1Km38Grombalia8030                                                                                          000000000364867000000000005473000000000058260000000000014565000000000000000000000000000000000000000000000000000000000000000000000344829                          Morale
L50005300GM00020200001071017565WAM000 SudMetal                                Toustravauxdemetal                      ZIIMSMMTMgrineTunis                                                                                                     000000001608533000000000024128000000000256824000000000064206000000000000000000000000000000000000000000000000000000000000000000001520199                          Morale
L50005300GM00020200001081896135SAM000 TunisiaIntership                        DechargementRestitutionNettoyage        RadsTunis                                                                                                               000000303032667000000004545490000000115580788000000028895197000000000000000000000000000000000000000000000000000000000000000000269591980                          Morale
L50005300GM00020200001101000548JAM000 AmpereElectic                           CoffretBipolaire2modsiame               77Avdecarthage1025Tunis                                                                                                 000000009991200000000000149868000000001543788000000000385947000000000000000000000000000000000000000000000000000000000000000000009455385                          Morale
L50005300GM00020200001111849863FAM000 CleanAir                                DiversLesbergesduLacTunis               LesbergesduLacTunis                                                                                                     000000007416067000000000111241000000001184080000000000296020000000000000000000000000000000000000000000000000000000000000000000007008806                          Morale
L50005300GM00020200001121601736EAM000 LATUNISIENNETRANSPORTROUTIER            TRANSPORT                               ZONEPORTUAIREDERADESBENAROUS2040                                                                                        000000008063267000000000120949000000010275168000000002568792000000000000000000000000000000000000000000000000000000000000000000005373526                          Morale
L50005300GM00020200001131513844QAM000 AFRIQUETRANSSMISSION                    VENTESDEPIECESDERECHANGESAUTO           90AVDECARTHAGEN16ET17TUNIS                                                                                              000000004989400000000000074841000000000796668000000000199167000000000000000000000000000000000000000000000000000000000000000000004715392                          Morale
L50005300GM00020200001141433708MAM000 BrainInformatiqueHP                     Commercematerielinformatique            17ruedeMauritanie1002BlvdreTuni                                                                                         000000004787133000000000071807000000000621144000000000155286000000000000000000000000000000000000000000000000000000000000000000004560040                          Morale
L50005300GM0002020000115183046XCA000  MRMLAMAISONDURIDEAUMETALSCES            VENTEPORTERIDEAUX                                                                                                                                               000000007276800000000000109152000000001161848000000000290462000000000000000000000000000000000000000000000000000000000000000000006877186                          Morale
L50005300GM00020200001161486788VAM000 MAAREFABUREAUTIQUE                      Importationetventedeconsommable         104AvHBougatfa2000lebardo                                                                                               000000044608267000000000669124000000007122336000000001780584000000000000000000000000000000000000000000000000000000000000000000042158559                          Morale
L50005300GM00020200001171005902DAM000 STETOPETANCHITE                         BalaisETCharbon                         ZIMegrine2033Tunis                                                                                                      000000000446200000000000006693000000000071252000000000017813000000000000000000000000000000000000000000000000000000000000000000000421694                          Morale
L50005300GM00020200001181993004AAM000 3IA                                     SERVICESINFORMATIQUES                   ALMADINAALJADIDA32063BENARROUS                                                                                          000000003570000000000000053550000000000570000000000000142500000000000000000000000000000000000000000000000000000000000000000000003373950                          Morale
L50005300GM00020200001191618429GAM000 StEymendeTransportTerrestre             Transport                               ZIZaghouanTunis                                                                                                         000000976197800000000014642967000000063864012000000015966003000000000000000000000000000000000000000000000000000000000000000000945588830                          Morale
L50005300GM00020200001201033162YAM000 ImprimeriePrincipale                    ImpressionEditionEmballage              RuedesmtauxZIndBenArous2013Tuni                                                                                         000000351500067000000005272501000000056121888000000014030472000000000000000000000000000000000000000000000000000000000000000000332197094                          Morale
L50005300GM00020200001211887904KAM000 TunisianTobaccoInvestment               Commerceenfournituredecigarettes        RuedesentrepreneursZICharguiaII                                                                                         000002949819600000000044247294000000470979600000000117744900000000000000000000000000000000000000000000000000000000000000000002787827406                          Morale
L50005300GM00020200001221862678MAM000 EXCELCONTROL                            contrletechniquedelaconstruction        39BisRueLouisBrailleCitJardins1003TUNIS                                                                                 000000003596215000000000001344000000000467508000000000116877000000000000000000000000000000000000000000000000000000000000000000003477994                          Morale
L50005300GM0002020000123183564QAM000  SINDBADTRANSSERVICES                    TRANSPORT                               TUNISIE                                                                                                                 000000001463467000000000021952000000000233660000000000058415000000000000000000000000000000000000000000000000000000000000000000001383100                          Morale
L50005300GM00020200001241700436XAM000 ROYALTYRE                               PNEUPLEININD                            25AVDECARTHAGE1001Tunis                                                                                                 000000003519333000000000052790000000000561908000000000140477000000000000000000000000000000000000000000000000000000000000000000003326066                          Morale
L50005300GM00020200001251026832XAM000 Unipak                                  Divers20MarsInter                       RoutedeGabesKM7BP723083SFAX                                                                                             000001690800105000000000000000000000321252020000000080313005000000000000000000000000000000000000000000000000000000000000000001610487100                          Morale
L50005300GM00020200001261031575HAM000 DDFAUDIT                                SOCIETEDAUDITETDECONSEILENGESTION       LESBERGESDULACTunis1053                                                                                                 000000083371867000000001250578000000020826464000000005206616000000000000000000000000000000000000000000000000000000000000000000076914673                          Morale
L50005300GM00020200001271447001EAM000 lAngeGardien                            DiversSabotdeSol                        2RueChourouk14RDCelMenzehI1004                                                                                          000000047190600000000000707859000000007534636000000001883659000000000000000000000000000000000000000000000000000000000000000000044599082                          Morale
L50005300GM00020200001281752542JAM000 COMI                                    Fournituresindustrielles                76Rue18Janvier1952Tunis1001Tunisie                                                                                      000000005325133000000000079877000000000850240000000000212560000000000000000000000000000000000000000000000000000000000000000000005032696                          Morale
L50005300GM000202000012911518695AAM000STEBATIMENTSTANDINGSBS                  BATIMENT                                19AVENUE14JANVIER20112074MOUROUJ1                                                                                       000000120507800000000001807617000000019240748000000004810187000000000000000000000000000000000000000000000000000000000000000000113889996                          Morale
L50005300GM000202000013011045246YAC000SOTF                                    TOURNAGEETFRASAGE                       BOUMHEL                                                                                                                 000000012994800000000000194922000000002074800000000000518700000000000000000000000000000000000000000000000000000000000000000000012281178                          Morale
L50005300GM00020200001311491154YAM000 Matech                                  DiversGaletRoueStabilisatrice           GP1RoutedeSousseKm5MgrineRiadh20                                                                                        000000005831000000000000087465000000000931000000000000232750000000000000000000000000000000000000000000000000000000000000000000005510785                          Morale
L50005300GM00020200001321939998XAM000 IPSENLOGISTICS                          LOGISTIC                                TUNIS                                                                                                                   000000002992800000000000044892000000009586448000000002396612000000000000000000000000000000000000000000000000000000000000000000000551296                          Morale
L50005300GM00020200001331866771ABM000 MAISONDLINOX                            VENTEINOX                               TUNIS                                                                                                                   000000003514933000000000052724000000000561212000000000140303000000000000000000000000000000000000000000000000000000000000000000003321906                          Morale
L50005300GM00020200001341502016MAP000 MaitreLiliaMistiri                      Avocat                                  2BisRueAhmedKhobtaniAriana                                                                                              000000008600000000000000000000000000001118000000000000279500000000000000000000000000000000000000000000000000000000000000000000008320500                          Morale
L50005300GM00020200001351867323HAC000 AchrafCherif                            CommerceProduitIndustrieletMecanique    43AngleRueAliDarghouthet18Janvier                                                                                       000000001133600000000000017004000000000181000000000000045250000000000000000000000000000000000000000000000000000000000000000000001071346                          Morale
L50005300GM000202000013611011399GBM000EQUIPMODERNEHARDWARE                    COMMDEQUIPEMENT                         86AVDECARTHAGE1000TUNIS                                                                                                 000000003272467000000000049087000000000522500000000000130625000000000000000000000000000000000000000000000000000000000000000000003092755                          Morale
L50005300GM00020200001371950573WAM000 TRANSGLORYTUNISIE                       LOGISTICSETTRANSPORT                                                                                                                                            000000000420067000000000006301000000000067068000000000016767000000000000000000000000000000000000000000000000000000000000000000000396999                          Morale
L50005300GM00020200001381002167HAM000 LeMoteur                                CommercedePiecedeRechangeEngin          RueN8ZICharguiaI                                                                                                        000000000901000000000000013515000000000143856000000000035964000000000000000000000000000000000000000000000000000000000000000000000851521                          Morale
L50005300GM00020200001391848155DAM000 ManagementetFormation                   Formation                               8RuedIran1002Tunis                                                                                                      000000000750000000000000000000000000000142500000000000035625000000000000000000000000000000000000000000000000000000000000000000000714375                          Morale
L50005300GM00020200001401710611ZAM000 STPCI                                   DIVERSVALVES                            18RUE8609ZICHARGUIA2035TUNISCARTHAGE                                                                                    000000010970600000000000164559000000001751608000000000437902000000000000000000000000000000000000000000000000000000000000000000010368139                          Morale
L50005300GM00020200001411024489TAM000 GLOBALNET                               FOURNISSEURINTERNET                     IMMEULEENNOURCENTREURBAINNORD1004TUNIS                                                                                  000000109407333000000001641110000000017468520000000004367130000000000000000000000000000000000000000000000000000000000000000000103399093                          Morale
L50005300GM000202000014211125988CAP000ABDELWAHABSAIDI                         HuissierNotaire                         26BISAVVELVUEELWARDIATUNIS                                                                                              000000008480000000000000000000000000001102400000000000275600000000000000000000000000000000000000000000000000000000000000000000008204400                          Morale
L50005300GM000202000014311112214RAM000HANNIBALTRAINING                        FORMATION                               3RUEKENITRA2meETAGEAPPC5                                                                                                000000008320000000000000000000000000001580800000000000395200000000000000000000000000000000000000000000000000000000000000000000007924800                          Morale
L50005300GM00020200001441766119VAM000 softwaremanagementsolution              SERVICESINFORMATIQUES                   CITEELKHADRA1003TUNIS                                                                                                   000000062609400000000000939141000000009996460000000002499115000000000000000000000000000000000000000000000000000000000000000000059171144                          Morale
L50005300GM00020200001451818499KAM000 lumireformation                         FORMATION                               49AVdelUMAimmelemyra2imesoukra                                                                                          000000006848000000000000000000000000001301120000000000325280000000000000000000000000000000000000000000000000000000000000000000006522720                          Morale
L50005300GM00020200001461718828AAM000 steCBS                                  STEDETRAVEAUX                                                                                                                                                   000000474108067000000007111621000000075697928000000018924482000000000000000000000000000000000000000000000000000000000000000000448071964                          Morale
L50005300GM00020200001471945162WAM000 mwconsulting                            FORMATION                               10ruelhamadaramutuelleville                                                                                             000000009560000000000000000000000000001816400000000000454100000000000000000000000000000000000000000000000000000000000000000000009105900                          Morale
L50005300GM00020200001481565750WAM000 SELMMA                                  ENTREPOSAGEETLOGISTIQUE                 ZonePortuairederadres2040rads                                                                                           000000000130000000000000000000000000000024700000000000006175000000000000000000000000000000000000000000000000000000000000000000000123825                          Morale
L50005300GM000202000014910944509ZAM000carrefourinforgros                      ventematerielinformatique               25ruemustaphahjaiejnouvelariana                                                                                         000000001206400000000000018096000000000068288000000000017072000000000000000000000000000000000000000000000000000000000000000000001171232                          Morale
L50005300GM000202000015011218043YBM000SOCIETEINTERNATIONALEINFORMATIQUEETBUREAUTIQUEVENTMATERIELINFORMATIQUEETBUREAUTIQUE   14RuedesOrangesBardo2000Tunis                                                                                           000000005355000000000000080325000000000855000000000000213750000000000000000000000000000000000000000000000000000000000000000000005060925                          Morale
L50005300GM00020200001511900647VAM000 GROUPDMANUTENTGMC                       Stedechargement                         9ruesalahsaadimmeubledezineb4000sousse                                                                                  000000030837800000000000462567000000004923712000000001230928000000000000000000000000000000000000000000000000000000000000000000029144305                          Morale
L50005300GM00020200001521625362XAM000 CRISTAL                                 Quincaillerie                           21RuedelusinecharguiaIIArianaAroport2080                                                                                000001141525400000000017122881000000082162176000000020540544000000000000000000000000000000000000000000000000000000000000000001103861975                          Morale
L50005300GM000202000015311250846PAM000ENERSYSASSAD                            VENTESBATTERIES                         RUEELFOULADHZIBENAROUS                                                                                                  000000001201933000000000018029000000000191900000000000047975000000000000000000000000000000000000000000000000000000000000000000001135929                          Morale
L50005300GM00020200001541646484XPM000 GENERALHORTISERVICE                     EQUIPEMENTETSERVICES                    RouteKhlidiaKm6Naassen1135BenArous                                                                                      000000070577200000000001058658000000004617200000000001154300000000000000000000000000000000000000000000000000000000000000000000068364242                          Morale
L50005300GM000202000015516199JAM000   STEELLOUHOUM                            VENTEDELAVIANDE                         Av3aout19031009Tunis                                                                                                    000000114240000000000001713600000000017024000000000004256000000000000000000000000000000000000000000000000000000000000000000000108270400                          Morale
L50005300GM00020200001561723575GAM000 LABATTERIE                              VENTEBATTERIR                           ZIMGHIRALOT80FOUCHANA                                                                                                   000000024990000000000000374850000000003990000000000000997500000000000000000000000000000000000000000000000000000000000000000000023617650                          Morale
L50005300GM000202000015711040009PAC000MMS                                     EtudesFormationConseiletcommunication   08RuedelInde1002Tunis                                                                                                   000000002970000000000000000000000000000564300000000000141075000000000000000000000000000000000000000000000000000000000000000000002828925                          Morale
L50005300GM00020200001581823260WBM000 SOBIB                                   VENTEMATERIELSINFORMATIQUES             ruedulacdetanjanyikarsidencedulac1053                                                                                   000000004669267000000000070039000000000745524000000000186381000000000000000000000000000000000000000000000000000000000000000000004412847                          Morale
L50005300GM00020200001591837195CAP000 Matrehichemdammak                       AVOCAT                                  4ruechabanebhouri5imetageappn51TUINS                                                                                    000000001850000000000000000000000000000240500000000000060125000000000000000000000000000000000000000000000000000000000000000000001789875                          Morale
L50005300GM000202000016011089274RAM000BIOSOURCE                               ventematrielderestauration              55AvKhaiereddineBachBachaB2metage1073MontplaisirTunis                                                                   000000002889000000000000043335000000000189000000000000047250000000000000000000000000000000000000000000000000000000000000000000002798415                          Morale
L50005300GM000202000016111119954DAM000ADVANCETECH                             BUREAUXDECONFORMITE                     5RUEOUEDELKOURA2037ENNASER2                                                                                             000000093596867000000001403953000000011061504000000002765376000000000000000000000000000000000000000000000000000000000000000000089427538                          Morale
L50005300GM00020200001621797629JAM000 TUNISIANENVIRONMENTALSERVICE            TRAVAUXDENVIRONEMENT                    immsafsafapptB57ruechotterromenmonplaisirTunis1073                                                                      000000071506600000000001072599000000011417024000000002854256000000000000000000000000000000000000000000000000000000000000000000067579745                          Morale
L50005300GM000202000016311253643SAM000ITAK                                    VENTEEQUIPEMENTAGRICOLE                 124RuedjbelelatlaselAwsatjbaljloud2023Tunis                                                                             000000008342000000000000125130000000001331924000000000332981000000000000000000000000000000000000000000000000000000000000000000007883889                          Morale
L50005300GM000202000016411329798DAM000ELITEINFO                               FORMATION                               immeubleiccappartn54imeetagTUNIS                                                                                        000000082040933000000001230614000000003576464000000000894116000000000000000000000000000000000000000000000000000000000000000000079916203                          Morale
L50005300GM000202000016511328780NBC000NOUVELLECOMPTOIREAUTO                   PIECEDERECHANGE                         57ruedecarthageTUNIS                                                                                                    000000005047133000000000075707000000000805868000000000201467000000000000000000000000000000000000000000000000000000000000000000004769959                          Morale
L50005300GM000202000016611334442KAM0003IADISTRIBUTION                         VENTEMATERIELSINDUSTRIELS               SOUKLAHADSOUSSE4037                                                                                                     000000041522067000000000622831000000006574664000000001643666000000000000000000000000000000000000000000000000000000000000000000039255570                          Morale
L50005300GM000202000016711231813YAM000QUEENINFO                               FORMATION                               ARIANACENTRE2080ARIANA                                                                                                  000000002850000000000000000000000000000541500000000000135375000000000000000000000000000000000000000000000000000000000000000000002714625                          Morale
L50005300GM000202000016811254759JAM000AOUINIMAHREZ                            PLOMBERIE                               CITEENNASSIMESSAIDA2031                                                                                                 000000006157600000000000092364000000001304256000000000326064000000000000000000000000000000000000000000000000000000000000000000005739172                          Morale
L50005300GM000202000016910225440SAC000EntrepriseBATIMENTGENERALBELAHIRECHNAIM TRAVAUXDECONSTRUCTION                   8060RUECHIKHMGHIRBIBENIKHIAR                                                                                            000000047184400000000000707766000000007533652000000001883413000000000000000000000000000000000000000000000000000000000000000000044593221                          Morale
L50005300GM000202000017010777872HAM000ELKRON                                  TRAVAUX                                 2bisrueElManzahElManzah11004tunis                                                                                       000000005628667000000000084430000000000898700000000000224675000000000000000000000000000000000000000000000000000000000000000000005319562                          Morale
L50005300GM00020200001711013555BAM000 STARCONTAINERTU                         LOGISTICSETTRANSPORT                    immeublemaersktunisie2014Mgrine                                                                                         000000015761667000000000236425000000034401396000000008600349000000000000000000000000000000000000000000000000000000000000000000006924893                          Morale
L50005300GM000202000017211094683PAM000ABM                                     CONCESSIONNAIRE                         2RueElyasamineCitAgentsdelaSureteSidiFradj9029BjaSud                                                                    000000001035800000000000015537000000000165380000000000041345000000000000000000000000000000000000000000000000000000000000000000000978918                          Morale
L50005300GM000202000017311378066VAM000ARKASTUNISIE                            TRANSPORT                               ZPRADESTUNISIE2040                                                                                                      000000011560600000000000173409000000017168232000000004292058000000000000000000000000000000000000000000000000000000000000000000007095133                          Morale
L50005300GM000202000017411041577YAM000INDESIGNENGINEERING                     ETUDEDUPROJET                           RueAbederazakechraiibiemlmanzah7Ariana                                                                                  000000014927508000000000000000000000001940576000000000485144000000000000000000000000000000000000000000000000000000000000000000014442364                          Morale
L50005300GM000202000017511284482PAM000SMARTELECTRIC                           Quincaillerie                           35BISRUEAHMEDTLILITUNIS10001000TUNIS                                                                                    000000005716200000000000085743000000000890496000000000222624000000000000000000000000000000000000000000000000000000000000000000005407833                          Morale
L50005300GM000202000017611406748AAM000ELECTRIQUEDUSAHEL                       VENTEMATERIELSELECTRIQUE                53rue18janvier1952                                                                                                      000000002572067000000000038581000000000410672000000000102668000000000000000000000000000000000000000000000000000000000000000000002430818                          Morale
L50005300GM000202000017710030916EAM000VENDAS                                  DIGITALPRINTCOM                         58AvHBourguiba2033Mgrinetunisie                                                                                         000000000714000000000000010710000000000114000000000000028500000000000000000000000000000000000000000000000000000000000000000000000674790                          Morale
L50005300GM000202000017810985115KAM000APSSERVICE                              PROTECTIONCONTREINCENDIE                13rueibnchamaatunis                                                                                                     000000005633867000000000084508000000000899532000000000224883000000000000000000000000000000000000000000000000000000000000000000005324476                          Morale
L50005300GM00020200001791020209CAM000 SMTT                                    TRANSPORT                               AVHEDINOURA1125RADESMELLAHA                                                                                             000000647386800000000009710802000000046546836000000011636709000000000000000000000000000000000000000000000000000000000000000000626039289                          Morale
L50005300GM000202000018011251519FPM000NEXTSTEP                                DIAGNOSTIQUERESEAUX                     31rue1erjuinmutuellevilletunis1082                                                                                      000000042630000000000000639450000000006806472000000001701618000000000000000000000000000000000000000000000000000000000000000000040288932                          Morale
L50005300GM000202000018110349848ZAM000HENCHIRICOMPAGNIE                       ENTRETIENAUTO                           avrpubliquebenarous                                                                                                     000000002082800000000000031242000000000332540000000000083135000000000000000000000000000000000000000000000000000000000000000000001968423                          Morale
L50005300GM000202000018210287506KAC000BMCSATELLITETRACKING                    ENTRETIENTVEHICULE                      55avdelenvironnementborjlouzirariana                                                                                    000000002748600000000000041229000000000316216000000000079054000000000000000000000000000000000000000000000000000000000000000000002628317                          Morale
L50005300GM000202000018310578431BAM000TECHNOCHIMIEASSISTANCETCA               ASSISTANCETECHNIQUE                     residencesaidanefouchana                                                                                                000000003637467000000000054562000000000580792000000000145198000000000000000000000000000000000000000000000000000000000000000000003437707                          Morale
L50005300GM000202000018411007634TAM000FIRSTACADEMY                            FORMATION                               TUNIS                                                                                                                   000000012454989000000000000000000000002366448000000000591612000000000000000000000000000000000000000000000000000000000000000000011863377                          Morale
L50005300GM000202000018511190851BAM000ADVANCIAITSYSTEM                        DIAGNOSTIQUERESEAUX                     centrebabelentreoliverrueduturkanabergedulac                                                                            000000008330000000000000124950000000001330000000000000332500000000000000000000000000000000000000000000000000000000000000000000007872550                          Morale
L50005300GM000202000018611293714MAM000TECHNOQUIPDISTRIBUTION                  VENTEMASQUE                             15rueahmedtliliRDCTUNIS                                                                                                 000000042840000000000000642600000000006840000000000001710000000000000000000000000000000000000000000000000000000000000000000000040487400                          Morale
L50005300GM000202000018711369604YAC000MATHLOUTHIFETHISERVICEIMPRIMANTE        SERVICEIMPRIMENTE                       31rueibnchabbatcitelhidhab2fouchana                                                                                     000000012201533000000000183023000000001531636000000000382909000000000000000000000000000000000000000000000000000000000000000000011635601                          Morale
L50005300GM00020200001881035352LAM000 4MKLAUTOCOLLANT                         VENTESETIQUETTES                        5bisrue8610ZICHARGUIAITUNISCARTHAGE                                                                                     000000000144200000000000002163000000000023028000000000005757000000000000000000000000000000000000000000000000000000000000000000000136280                          Morale
L50005300GM000202000018911228086QAM000MTSMDIMEGHTRANSPORTSSERVICES            TRANSPORT                               rueomelaraisimmeubleejmel2iemzoneindsaintgobinbenarous                                                                  000000107059667000000001605895000000007003896000000001750974000000000000000000000000000000000000000000000000000000000000000000103702798                          Morale
L50005300GM000202000019011438611HAM000ATAI                                    Centredeformation                       RueLacBiwaImmeubleMariamBlocB1ertageBureaunB1LesbergesduLac11053tunis                                                   000000001850000000000000000000000000000351500000000000087875000000000000000000000000000000000000000000000000000000000000000000001762125                          Morale
L50005300GM000202000019111183353VAM000CHM                                     COOP2RATIONDESHANDICAPSMOTEURS          10rueZainelabidineSnoussiMontflery1008tunis                                                                             000000003941200000000000059118000000000629280000000000157320000000000000000000000000000000000000000000000000000000000000000000003724762                          Morale
L50005300GM000202000019210261198GAC000SALAHBENMOHAMEDSALAHZOUAGHI             LOCCATIONMATERIELETENSEIGNEDELOCATION   BEJA                                                                                                                    000000032100000000000000000000000000006099000000000001524750000000000000000000000000000000000000000000000000000000000000000000030575250                          Morale
L50005300GM00020200001931513895CCM000 JAPANGERMANPARTS                        VENTEPIECEAUTO                          TUNIS                                                                                                                   000000002368067000000000035521000000000315924000000000078981000000000000000000000000000000000000000000000000000000000000000000002253565                          Morale
L50005300GM000202000019411211113PMP000SOCIETEMEILLEURSPLANTES                 PLANTEURS                               TUNIS                                                                                                                   000000067262133000000001008932000000010739340000000002684835000000000000000000000000000000000000000000000000000000000000000000063568366                          Morale
L50005300GM000202000019510620152RAM000STEELFATHMATERIAUXDCONSTRUCTIO          TRAVAUX                                 TUNIS                                                                                                                   000000001947533000000000029213000000000310944000000000077736000000000000000000000000000000000000000000000000000000000000000000001840584                          Morale
L50005300GM000202000019611293730MAM000AEMADVICEENERGYMODERN                   ENERGIEMODERNE                          17AVENUEDELASOLIDARITECITEETAHRIRTUNIS2042                                                                              000000003237600000000000048564000000000516932000000000129233000000000000000000000000000000000000000000000000000000000000000000003059803                          Morale
L50005300GM000202000019710909848RAM000HARBAOUIDETRAVAUXPUBLICSETBATIMENTS     TRAVAUXDESBATIMENTS                     75RUEFERJANISOUYEHELOMRANE                                                                                              000000005758067000000000086371000000000919352000000000229838000000000000000000000000000000000000000000000000000000000000000000005441858                          Morale
L50005300GM00020200001981179141XNC000 HAKIMIAMOR                              TOLIER                                  TUNIS                                                                                                                   000000002011133000000000030167000000000321096000000000080274000000000000000000000000000000000000000000000000000000000000000000001900692                          Morale
L50005300GM000202000019910719094PAM000CIFAT                                   FORMTION                                rsidencemeriambureauA15avenuedelindependanceariana                                                                      000000001752084000000000000000000000000332896000000000083224000000000000000000000000000000000000000000000000000000000000000000001668860                          Morale
L50005300GM000202000020011459276DBM000SEMSI                                   MATERIELSDESECURITEDETRAVAIL            5ruealibelhouenmegrineriyadh                                                                                            000000019691667000000000295375000000003144088000000000786022000000000000000000000000000000000000000000000000000000000000000000018610270                          Morale
L50005300GM00020200002011014402NAM000 GENERALDESAPPLICATIONSMECANIQUES        VENTESCHARIOTSELEVATEURS                RUEDECOMMERCEZICHARGUIATUNIS                                                                                            000000044779467000000000671692000000002929500000000000732375000000000000000000000000000000000000000000000000000000000000000000043375400                          Morale
L50005300GM000202000020211081344DAM0002IINGENIERIEINDUSTRIELLE                BUREAUDETUDE                            338avenue7novembrebizerte                                                                                               000000007500000000000000000000000000000975000000000000243750000000000000000000000000000000000000000000000000000000000000000000007256250                          Morale
L50005300GM000202000020311016421HAM000EREM                                    Quincaillerie                           36AvMouaouiaIbnAbiSoufiane2037ElManzah8Tunis                                                                            000000002599333000000000038990000000000415020000000000103755000000000000000000000000000000000000000000000000000000000000000000002456588                          Morale
L50005300GM000202000020411392706PAM000INTERCLE                                CLE                                     Tunis                                                                                                                   000000000357000000000000005355000000000057000000000000014250000000000000000000000000000000000000000000000000000000000000000000000337395                          Morale
L50005300GM000202000020510496614CAM000TMF                                     TRAVAUXDUCHAUFFAGEETDELACLIMATISATION   ZIARIANAAEREPORT1080TUNISCEDEX                                                                                          000000022391067000000000335866000000003575040000000000893760000000000000000000000000000000000000000000000000000000000000000000021161441                          Morale
L50005300GM000202000020610654270FAC000BENAYEDMONGI                            VENTEPIECEFROIDETMATERIELDEREFREGERATEURS22RUEBAYROUTEZZAHRAKM5GP1                                                                                               000000000066000000000000000990000000000108612000000000027153000000000000000000000000000000000000000000000000000000000000000000000037857                          Morale
L50005300GM000202000020711211461HAC000ELMOUSSILOTFI                           TRANSPORT                               31ruedefellsidihcineTunis                                                                                               000000033705000000000000505575000000002205000000000000551250000000000000000000000000000000000000000000000000000000000000000000032648175                          Morale
L50005300GM000202000020811047453MAM000GDSAUTOMATISME                          MECANIQUEAUTO                           24bisruedaghbagitunis                                                                                                   000000001139867000000000017098000000000182004000000000045501000000000000000000000000000000000000000000000000000000000000000000001077268                          Morale
L50005300GM00020200002091036518VAM000 KACEM                                   Equipementpoureclairage                 Chergui3070kerkennah                                                                                                    000000060433533000000000906503000000003953600000000000988400000000000000000000000000000000000000000000000000000000000000000000058538630                          Morale
L50005300GM000202000021011140062BBM000MICROMED                                MATERIELINFORMATIQUE                    55RUEJEANAURES1002TUNIS                                                                                                 000000004592800000000000068892000000000300448000000000075112000000000000000000000000000000000000000000000000000000000000000000004448796                          Morale
L50005300GM000202000021111144001EAC000JAMELSOUISSICONSTMETALGCIVIL            TRAVAUXDAMENAGEMENT                     ROUTESIDIMANSOURKM7SFAX                                                                                                 000000414053267000000006210799000000066109352000000016527338000000000000000000000000000000000000000000000000000000000000000000391315130                          Morale
L50005300GM000202000021210988304BAM000SOCIETEENVIPAINT                        LOYERDEPOT                              ZIMGHIRA3LOT129                                                                                                         000000130000000000000000000000000000024700000000000006175000000000000000000000000000000000000000000000000000000000000000000000123825000                          Morale
L50005300GM000202000021311443050EBM000STESOUISSIAUTOPARTS                     SERVICEAUTO                             03RUEBENKHATRASIDIKHADARTUNIS                                                                                           000000007031667000000000105475000000001122760000000000280690000000000000000000000000000000000000000000000000000000000000000000006645502                          Morale
L50005300GM00020200002151895658MAM000 STEGENERALMATERIAUFOURNITGMF            VENTEPIENCEDERECHANGE                   18RueAliDarghouth1001Tunis                                                                                              000000031962000000000000479430000000005103208000000001275802000000000000000000000000000000000000000000000000000000000000000000030206768                          Morale
L50005300GM000202000021611056153DAM000DELTAEXPRESSELINE                       TRANSPORT                               ZONEPORTUAIRERADES                                                                                                      000000002945200000000000044178000000000470248000000000117562000000000000000000000000000000000000000000000000000000000000000000002783460                          Morale
L50005300GM00020200002171506080BAC000 ICHRAK                                  PIECEAUTO                               TUNIS                                                                                                                   000000003002133000000000045032000000000479336000000000119834000000000000000000000000000000000000000000000000000000000000000000002837267                          Morale
L50005300GM000202000021811484773LAM000SPITENGINS                              Quincaillerie                           COMPLEXEYasminetowerbureauA22CentreUrbainNord1082Tunis                                                                  000000001823467000000000027352000000000291140000000000072785000000000000000000000000000000000000000000000000000000000000000000001723330                          Morale
L50005300GM000202000021911362405MAM000SMTPSTEMEDDETRAVPUB                     TRAVAUX                                 671avenuebehiladghemborjlouizariana                                                                                     000000005188800000000000077832000000000828464000000000207116000000000000000000000000000000000000000000000000000000000000000000004903852                          Morale
L50005300GM00020200002201964051WAM000 SOCIETEENTRELEC                         TRAVAUX                                 IMPASSE9104RUEENTREPCHARGUIA2                                                                                           000000085153600000000001277304000000013595948000000003398987000000000000000000000000000000000000000000000000000000000000000000080477309                          Morale
L50005300GM000202000022111533170NBM000LACCESSOIREPRO                          VENTEACCESSOIRE                         TUNIS                                                                                                                   000000031659000000000000474885000000004754300000000001188575000000000000000000000000000000000000000000000000000000000000000000029995540                          Morale
L50005300GM000202000022211474243HAM000STEAVENIRTRANSPORTLOGISTICATL           TRANSPORT                               TARHOUNAMORNAG2090TUNIS                                                                                                 000000020137267000000000302059000000001317396000000000329349000000000000000000000000000000000000000000000000000000000000000000019505859                          Morale
L50005300GM000202000022311437670QAC000ENTREPRISEMOUADHBENDHIEFDEBAT           TRAVAUX                                 TUNIS                                                                                                                   000000007286200000000000109293000000001163348000000000290837000000000000000000000000000000000000000000000000000000000000000000006886070                          Morale
L50005300GM000202000022410035416KAM000STPS                                    SOCIETEDESTRAVAUX                       TUNIS                                                                                                                   000000098800667000000001482010000000015774896000000003943724000000000000000000000000000000000000000000000000000000000000000000093374933                          Morale
L50005300GM000202000022511076855PAM000IIFEINSTITUTINTERNATFORMAEDIT           FORMATION                               RUEDESENTREPRENEURSIMMGMGA2035                                                                                          000000000890000000000000000000000000000169100000000000042275000000000000000000000000000000000000000000000000000000000000000000000847725                          Morale
L50005300GM00020200002261750352WAM000 ADVANCIATRAINING                        DIAGNOSTIQUERESEAUX                     IMMGLOBALNET53RUEDESMINERAUXCHARGUIA1Tunis                                                                              000000017050000000000000000000000000003239500000000000809875000000000000000000000000000000000000000000000000000000000000000000016240125                          Morale
L50005300GM00020200002271005947SAM000 SOGEPESTEGENDPDTSETANCHEITE             TRAVAUX                                 40AVENUEMADRIDTUNIS                                                                                                     000000013285000000000000199275000000002121140000000000530285000000000000000000000000000000000000000000000000000000000000000000012555440                          Morale
L50005300GM000202000022811495901KBM000CGPRINTINFORMATIQPHOTOCOBURE            SERVICEINFORMATIQUE                     ZOUHAIERESSAFI1007TUNIS                                                                                                 000000000042267000000000000634000000000006744000000000001686000000000000000000000000000000000000000000000000000000000000000000000039947                          Morale
L50005300GM00020200002291946958FAM000 TECHNIAIR                               SERVICEDENTRETIEN                       28RUEDELENERGIECHARGUIA1                                                                                                000000205993533000000003089903000000024774608000000006193652000000000000000000000000000000000000000000000000000000000000000000196709978                          Morale
L50005300GM00020200002301736140AAM000 VALORIASA                               VENTEACESSOIRESDIVERS                   40AVENUEUNIONMAGHREBARABSOUKRA                                                                                          000000067889000000000001018335000000010774156000000002693539000000000000000000000000000000000000000000000000000000000000000000064177126                          Morale
L50005300GM000202000023111067223KNC000ATELIERAHMEDFANTASSI                    TOLIER                                  10RUE4020RABTATUNIS4020                                                                                                 000000002500000000000000037500000000000399160000000000099790000000000000000000000000000000000000000000000000000000000000000000002362710                          Morale
L50005300GM000202000023210710033LAM000SPESTEPLASTIQUEEMBALLAGE                EMBALLAGE                               RTEDEMSAKENZAOUIETSOUSSE                                                                                                000000249995133000000003749927000000039915200000000009978800000000000000000000000000000000000000000000000000000000000000000000236266406                          Morale
L50005300GM00020200002331130126JAM000 PREMIOSERVICESAUTO                      SERVICEAUTO                             81RUE18JANVIER1952TUNIS                                                                                                 000000010180200000000000152703000000001625416000000000406354000000000000000000000000000000000000000000000000000000000000000000009621143                          Morale
L50005300GM00020200002341768050ZAM000 TUNISIEMETAL                            VENTEMETAL                              KM12ROUTEGP1EZZAHRABENAROUS                                                                                             000000033617467000000000504262000000005367500000000001341875000000000000000000000000000000000000000000000000000000000000000000031771330                          Morale
L50005300GM00020200002351757384KAM000 SEGORSTEEXPLTGESTOUVRAGRESEAU           SERVICERESEAUX                          RUELANVLLEDELHITUNISBELVEDERETUNIS                                                                                      000000009460533000000000141908000000001510500000000000377625000000000000000000000000000000000000000000000000000000000000000000008941000                          Morale
L50005300GM0002020000236130462VAM000  SMCSTEDEMATERIELDECLIMATISATIO          SERVICECLIMATISATION                    71RUEDELENERGIEZICHARGUIA1                                                                                              000000061980933000000000929714000000009896112000000002474028000000000000000000000000000000000000000000000000000000000000000000058577191                          Morale
L50005300GM00020200002371911300DAM000 STESTETRANSFORMATIONDEMBALLAGE          EMBALLAGRE                              TUNIS                                                                                                                   000000149441200000000002241618000000023860368000000005965092000000000000000000000000000000000000000000000000000000000000000000141234490                          Morale
L50005300GM000202000023811504606JAM000SOCIETEPROBATPLUS                       VENTEACESSOIRESDIVERS                   TUNISE                                                                                                                  000000002614333000000000039215000000000417416000000000104354000000000000000000000000000000000000000000000000000000000000000000002470764                          Morale
L50005300GM00020200002391035305DAM000 IMPACT                                  VENTEACESSOIRESDIVERS                   47RUELACLEMANIMMMENINXAPTB3LESBERGESDULAC                                                                               000000003927000000000000058905000000000627000000000000156750000000000000000000000000000000000000000000000000000000000000000000003711345                          Morale
L50005300GM000202000024011134390CPM000CFKCHAUDFROIDKARIM                      SERVICEDECLIMATISATION                  26CITEELMANARELMOUROUJBENAROUS2074                                                                                      000000099245800000000001488687000000015845960000000003961490000000000000000000000000000000000000000000000000000000000000000000093795623                          Morale
L50005300GM000202000024111126208RPM000ELWIFEKFLEXIBLES                        confectionetrparationtoustypesdeflexiblesaccessoireshydrauliques23AvTaiebMhiri2014MgrineRiadhBenArous                                                                                   000000009078733000000000136181000000001449540000000000362385000000000000000000000000000000000000000000000000000000000000000000008580167                          Morale
L50005300GM000202000024211080255ZAM000SECURITYSYSTEMCONSULTING                CONSULTING                              N3RUE13AOUT19562EMEETGMARSA2078                                                                                         000000005236000000000000078540000000000836000000000000209000000000000000000000000000000000000000000000000000000000000000000000004948460                          Morale
L50005300GM000202000024311223325PAM000TUNISIENNEFROIDECHAUFFAGECLIMATISATION  climatisation                           22RueelimamaerassaaMonplaisir1002Tunis                                                                                  000000187425000000000002811375000000029925000000000007481250000000000000000000000000000000000000000000000000000000000000000000177132375                          Morale
L50005300GM000202000024411469145YAM000STCISTETUNCOMMERCEINFORMATIQ            COMMERCEETINFORMATIQUE                  30RUEDIRAKANGLEPALESTINETUNIS                                                                                           000000038455800000000000576837000000002515800000000000628950000000000000000000000000000000000000000000000000000000000000000000037250013                          Morale
L50005300GM000202000024511059513WAM000REDACHEMTUNISIESARL                     SERVICESCHAUXFROIDS                     ESPACETUNISBLIMMFAP24MONTPLAISIR1002                                                                                    000000011344733000000000170171000000001811352000000000452838000000000000000000000000000000000000000000000000000000000000000000010721724                          Morale
L50005300GM000202000024611527250ZAM000SAVINODELBENE                           TRANSIT                                 08RUECLAUDEBERNARDTUNIS                                                                                                 000000014119267000000000211789000000009737492000000002434373000000000000000000000000000000000000000000000000000000000000000000011473105                          Morale
L50005300GM000202000024711426829LAM000NEWTECHIT                               assistanceinformatique                  centreUrbainnordimmeubleTamayouzBUREAUC33meEtage1082Tunis                                                               000000007140000000000000107100000000001140000000000000285000000000000000000000000000000000000000000000000000000000000000000000006747900                          Morale
L50005300GM000202000024811450620KAP000ISEG                                    Centredeformation                       47AvHBourguiba1000tunis                                                                                                 000000001440000000000000000000000000000273600000000000068400000000000000000000000000000000000000000000000000000000000000000000001371600                          Morale
L50005300GM00020200002491145275HAM000 SCF                                     Centredeformation                       RueArabieSaouditeappartementN331meEtage1002Tunis                                                                        000000005880000000000000000000000000001117200000000000279300000000000000000000000000000000000000000000000000000000000000000000005600700                          Morale
