E30005300GM0002020An30001753RNTA                                    INDUSTRIE CIGARETTE                     Tunis                                   Boulevard 15 Octobre                                                    00421080                                                                                                                                                                                 
L30005300GM00020200000011001237MAM000 Société Tunisienne des Banques          Bancaire                                Rue Hédi Nouira 1001 Tunis                                                                                              000000683795520000000000000000000000000000000000000136759104000000547036416                                                                                            
L30005300GM00020200000021024588WAM000 Banque de l'Habitat                     Bancaire                                21 Avenue Kheireddine Pacha 1002 Tunis Bélvédère                                                                        000000235035190000000000000000000000000000000000000047007038000000188028152                                                                                            
L30005300GM00020200000031000110FAM000 Banque Internationale Arabe de Tunisie  Bancaire                                Avenue Habib Bourguiba 1000 Tunis                                                                                       000000045246660000000000000000000000000000000000000009049332000000036197328                                                                                            
L30005300GM00020200000041000221MAM000 AMEN BANK                               Bancaire                                Avenue Mohamed V Tunis                                                                                                  000000176571625000000000000000000000000000000000000035314325000000141257300                                                                                            
L30005300GM00020200000051014161QAM000 Arab Tunisien Bank                      Bancaire                                09,Rue Hédi Nouira 1001 Tunis                                                                                           000000121208475000000000000000000000000000000000000024241695000000096966780                                                                                            
L30005300GM00020200000061015094BAM000 Banque de Tunisie et des Emirates       Bancaire                                Rue Mohamed Badra 1002 Tunis                                                                                            000000081767825000000000000000000000000000000000000016353565000000065414260                                                                                            
L30005300GM00020200000071000120HAM000 Banque de Tunisie                       Bancaire                                2 Rue de la Turquie 1001 Tunis                                                                                          000000066551470000000000000000000000000000000000000013310294000000053241176                                                                                            
L30005300GM00020200000081000121JAM000 ATTIJARI BANK                           Bancaire                                95,Avenue de la Liberté 1002 Tunis                                                                                      000000000013830000000000000000000000000000000000000000002766000000000011064                                                                                            
L30005300GM00020200000091002707PAM000 Union Bancaire de Commerce & de l'IndustrieBancaire                                74,Avenue Habib Bourguiba BP 14188                                                                                      000000002184035000000000000000000000000000000000000000436807000000001747228                                                                                            
L30005300GM00020200000101002708QAM000 Union Internationale des Banques        Bancaire                                65,Avenue Habib Bouguiba 1000 Tunis                                                                                     000000000304000000000000000000000000000000000000000000060800000000000243200                                                                                            
L30005300GM00020200000111013026EPM000 Tunisian Saudi Bank                     Bancaire                                Centre urbain nord Boulevard                                                                                            000000002274580000000000000000000000000000000000000000200399000000001819664                                                                                            
L30005300GM00020200000121012357SAM000 Banque Tuniso-Koweitienne               Bancaire                                10, Bis Avenue Mohamed V 1001 Tunis                                                                                     000000000494530000000000000000000000000000000000000000098906000000000395624                                                                                            
T30005300GM0002020                                                                                                                                                                                                                            000000000000000000000000000000000000000000000000000000000000000000000000000                                                                                            
