E20005300GM0002020An20001753RNTA                                    INDUSTRIE CIGARETTE                     Tunis                                   Boulevard 15 Octobre                                                    00421080                                                                                                                                                                                 
L20005300GM0002020000002202365438     ARDHIMOHAMED                            AGRICULTEUR                             FERNENNA                                                                                                                10000000000000000000000000000000000000000000000000000000450000000000000000000000000000000000000000000000000000000000000000000000000000000000000000006750000000000038250
L20005300GM0002020000003202413605     HSOUNABENETTAIEBBENHOUCINESNEMRI        PLANTEUR                                TUNIS                                                                                                                   10000000000000000000000000000000000000000000000000000001800000000000000000000000000000000000000000000000000000000000000000000000000000000000000000027000000000000153000
L20005300GM0002020000004202431538     HOUSSINEBEFERJANIBENKHMAEISABIDI        PLANTEUR                                TABARKA                                                                                                                 10000000000000000000000000000000000000000000000000000000450000000000000000000000000000000000000000000000000000000000000000000000000000000000000000006750000000000038250
L20005300GM0002020000005205613527     REBEHMECHERGUI                          PLANTEUR                                SEJNENE                                                                                                                 10000000000000000000000000000000000000000000000000000000900000000000000000000000000000000000000000000000000000000000000000000000000000000000000000013500000000000076500
L20005300GM0002020000006201447106     MOHAMEDBENABDELMAJIDMAOUI               AGRICULTEUR                             SEJNENE                                                                                                                 10000000000000000000000000000000000000000000000000000001500000000000000000000000000000000000000000000000000000000000000000000000000000000000000000022500000000000127500
L20005300GM0002020000007201657420     BENMOHAMEDBENHOURIA                     AGRICULTEUR                             KLIBIA                                                                                                                  10000000000000000000000000000000000000000000000000000003000000000000000000000000000000000000000000000000000000000000000000000000000000000000000000045000000000000255000
L20005300GM0002020000008202451810     NACEURBENMASSAOUDBOUZAZI                PLANTEUR                                GHARDIMAOUIJANDOUBA                                                                                                     10000000000000000000000000000000000000000000000000000002100000000000000000000000000000000000000000000000000000000000000000000000000000000000000000031500000000000178500
L20005300GM0002020000009202508034     zwabiabdelwaheb                         expertplanteur                          JANDOUBA                                                                                                                10000000000000000000000000000000000000000000000000000007950000000000000000000000000000000000000000000000000000000000000000000000000000000000000000119250000000000675750
L20005300GM0002020000010203375831     MOKHTARBENABDALLAHNEYLIBENMEDABDALLALI  PLANTEUR                                JANDOUBA                                                                                                                10000000000000000000000000000000000000000000000000000003300000000000000000000000000000000000000000000000000000000000000000000000000000000000000000049500000000000280500
L20005300GM0002020000011205090227     ALIBENMOHAMEDBENMOULDIDZIRI             AGRICULTEUR                             KLIBIA                                                                                                                  10000000000000000000000000000000000000000000000000000005550000000000000000000000000000000000000000000000000000000000000000000000000000000000000000083250000000000471750
L20005300GM0002020000012200149603     DJEMAAGACEMHADOUG                       LOCATAIRE                               24RUEHABOBTHAMEURKHEREDDINETUNIS                                                                                        40000000517800000000000000000000000000000000000000000000000000000000000000000000000000000000000000000000000000000000000000000000000000000000000007767000000000044013000
L20005300GM0002020000013225940931     DrMohamedMontaceurKechir                MedecinHopital                          HopitalKassab                                                                                                           10000000065625000000000000000000000000000000000000000000000000000000000000000000000000000000000000000000000000000000000000000000000000000000000000984375000000005578125
L20005300GM0002020000014205007041     HEDIBTAHARLAKHDHAR                      LOCATIONDEPOT                           ELALIA                                                                                                                  40000000017364330000000000000000000000000000000000000000000000000000000000000000000000000000000000000000000000000000000000000000000000000000000000260465000000001475968
L20005300GM000202000001510004914FAP000MOHAMEDMRAD                             LOCATION                                45AVEDEKOWEIT8050HAMMAMET                                                                                               40000000324209870000000000000000000000000000000000000000000000000000000000000000000000000000000000000000000000000000000000000000000000000000000004863148000000027557839
L20005300GM0002020000016200582314     DRMEJDACHEOUR                           DOCTEUR                                 TUNIS                                                                                                                   10000000006400000000000000000000000000000000000000000000000000000000000000000000000000000000000000000000000000000000000000000000000000000000000000096000000000000544000
L20005300GM0002020000017200493424     DrLamineMegdiche                        Medecin                                 HopitalIbnNafissAriana                                                                                                  10000000074550000000000000000000000000000000000000000000000000000000000000000000000000000000000000000000000000000000000000000000000000000000000001118250000000006336750
L20005300GM0002020000018200425013     DrRidhaKamoun                           MedecinHopital                          CharlesNicoleTunis                                                                                                      10000000037275000000000000000000000000000000000000000000000000000000000000000000000000000000000000000000000000000000000000000000000000000000000000559125000000003168375
L20005300GM000202000001911125988CAP000ABDELWAHABSAIDI                         HuissierNotaire                         26BISAVVELVUEELWARDIATUNIS                                                                                              10000000110504870000000000000000000000000000000000000000000000000000000000000000000000000000000000000000000000000000000000000000000000000000000001657573000000009392914
L20005300GM0002020000020200461368     SALAHOUERTANI                           LOCATAIRE                               LOTISSEMENTESSABERROUTEDETUNISBOUSALEM                                                                                  40000000110880000000000000000000000000000000000000000000000000000000000000000000000000000000000000000000000000000000000000000000000000000000000001663200000000009424800
L20005300GM000202000002116199JAM000   STEELLOUHOUM                            VENTEDELAVIANDE                         Av3aout19031009Tunis                                                                                                    10000000952000000000000000000000000000000000000000000000000000000000000000000000000000000000000000000000000000000000000000000000000000000000000014280000000000080920000
L20005300GM0002020000022101254759JNC000AOUINIMAHREZ                            PLOMBERIE                               CITEENNASSIMESSAIDA2031                                                                                                 10000000020111000000000000000000000000000000000000000000000000000000000000000000000000000000000000000000000000000000000000000000000000000000000000301665000000001709435
L20005300GM0002020000023202149990     IBRAHIMSAIDI                            LOYER                                   NEFZA                                                                                                                   40000000008800000000000000000000000000000000000000000000000000000000000000000000000000000000000000000000000000000000000000000000000000000000000000132000000000000748000
L20005300GM0002020000024204774041     LAMIARAIESEPOUSETRIKI                   Medecin                                 HOPITALRABTA                                                                                                            10000000036750000000000000000000000000000000000000000000000000000000000000000000000000000000000000000000000000000000000000000000000000000000000000551250000000003123750
L20005300GM000202000002511264350RAP000DrKARIMTmimi                            MEDECIN                                 CLINIQUESAINTAUGUSTIN                                                                                                   10000000026625000000000000000000000000000000000000000000000000000000000000000000000000000000000000000000000000000000000000000000000000000000000000399375000000002263125
L20005300GM0002020000026202188695     DRHATEMBABDALLAH                        MEDECIN                                 HopitalMilitairedeTunis                                                                                                 10000000037275000000000000000000000000000000000000000000000000000000000000000000000000000000000000000000000000000000000000000000000000000000000000559125000000003168375
L20005300GM00020200000271182946DAC000 DrMohamedFenira                         Medecin                                 CliniqueELMedinaRueAboulkacemChebbiTunis                                                                                10000000037275000000000000000000000000000000000000000000000000000000000000000000000000000000000000000000000000000000000000000000000000000000000000559125000000003168375
L20005300GM0002020000028204609807     INESHARIGANAILI                         Medecin                                 HOPIATLHABIBTHAMEUR                                                                                                     10000000033075000000000000000000000000000000000000000000000000000000000000000000000000000000000000000000000000000000000000000000000000000000000000496125000000002811375
L20005300GM0002020000029201339978     CHTOUROUOLFA                            Medecin                                 centreintermdiairedesantdebaseALITRADMELLASSINE                                                                         10000000037275000000000000000000000000000000000000000000000000000000000000000000000000000000000000000000000000000000000000000000000000000000000000559125000000003168375
L20005300GM0002020000030204632265     HARROUNWERTANI                          DOCTEUR                                 TUNIS                                                                                                                   10000000041475000000000000000000000000000000000000000000000000000000000000000000000000000000000000000000000000000000000000000000000000000000000000622125000000003525375
L20005300GM0002020000031201353821     ROMDHANBENMOHAMEDELHABIB                LOYER                                   TUNIS                                                                                                                   40000000010000000000000000000000000000000000000000000000000000000000000000000000000000000000000000000000000000000000000000000000000000000000000000150000000000000850000
L20005300GM000202000003221216752NNC000AYMENACHOURI                            TOLIER                                  TUNIS                                                                                                                   10000000025006000000000000000000000000000000000000000000000000000000000000000000000000000000000000000000000000000000000000000000000000000000000000375090000000002125510
L20005300GM000202000003310261198GCM000SALAHBENMOHAMEDSALAHZOUAGHI             LOCATAIRE                               BEJA                                                                                                                    40000000381990000000000000000000000000000000000000000000000000000000000000000000000000000000000000000000000000000000000000000000000000000000000005729850000000032469150
L20005300GM0002020000034208171767     RAHMADAMMEK                             DOCTEUR                                 TUNIS                                                                                                                   10000000001200000000000000000000000000000000000000000000000000000000000000000000000000000000000000000000000000000000000000000000000000000000000000018000000000000102000
L20005300GM0002020000035204721998     SALMACHAHMI                             LOCATION                                12rueduranusromanatunis1068                                                                                             40000000450000000000000000000000000000000000000000000000000000000000000000000000000000000000000000000000000000000000000000000000000000000000000006750000000000038250000
L20005300GM000202000003611221142ANC000RESTAURANTMOSAIQUERIDHABASSEM           RESTAURATION                            Tunis                                                                                                                   10000000041000000000000000000000000000000000000000000000000000000000000000000000000000000000000000000000000000000000000000000000000000000000000000615000000000003485000
L20005300GM00020200000371988304BAM000 SOCIETEENVIPAINT                        LOYERDEPOT                              ZIMGHIRA3LOT129                                                                                                         40000001547000000000000000000000000000000000000000000000000000000000000000000000000000000000000000000000000000000000000000000000000000000000000023205000000000131495000
L20005300GM0002020000038200199951     DRKACHBOURASALEM                        MEDECIN                                 TUNIS                                                                                                                   10000000074025000000000000000000000000000000000000000000000000000000000000000000000000000000000000000000000000000000000000000000000000000000000001110375000000006292125
L20005300GM000202000003911405595XNC000BOUCHERIECHEVALINECHEVALBLANC           BOUCHERIE                               Tunis                                                                                                                   10000000006300000000000000000000000000000000000000000000000000000000000000000000000000000000000000000000000000000000000000000000000000000000000000094500000000000535500
L20005300GM0002020000040208045991     DRSAFIAOTHMANI                          DOCTEUR                                 TUNIS                                                                                                                   10000000006400000000000000000000000000000000000000000000000000000000000000000000000000000000000000000000000000000000000000000000000000000000000000096000000000000544000
L20005300GM000202000004111067223KNC000ATELIERAHMEDFANTASSI                    MECANIQUEAUTO                           10RUE4020RABTATUNIS4020                                                                                                 10000000043800000000000000000000000000000000000000000000000000000000000000000000000000000000000000000000000000000000000000000000000000000000000000657000000000003723000
L20005300GM0002020000042205696822     DRWISSALCHERIFALLANI                    MEDECIN                                 TUNIS                                                                                                                   10000000000500000000000000000000000000000000000000000000000000000000000000000000000000000000000000000000000000000000000000000000000000000000000000007500000000000042500
L20005300GM00020200000431885065LAM000 SKFMETALDUNORD                          LOCATION                                SIDIISMAILBEJA                                                                                                          40000000075375000000000000000000000000000000000000000000000000000000000000000000000000000000000000000000000000000000000000000000000000000000000001130625000000006406875
L20005300GM000202000004411299687DNC000PIZZARIACHEZMAMI                        RESTAURATION                            001MURIERBELVUE1009                                                                                                     10000000002295000000000000000000000000000000000000000000000000000000000000000000000000000000000000000000000000000000000000000000000000000000000000034425000000000195075
L20005300GM000202000004511220404ZAM000CE2ENGINEERING                          ETUDEDEPROJET                           2RUELABIDAPPARTEMENT26                                                                                                  10000000000000000000000118082800000000000000000000000000000000000000000000000000000000000000000000000000000000000000000000000000000000000000000000590414000000011217866
L20005300GM00020200000461014239WAM000 ACTAPAVE                                Controletechnique                       51RuedesentrepZIArianaBP110Tunis                                                                                        10000000000000000000000121034200000000000000000000000000000000000000000000000000000000000000000000000000000000000000000000000000000000000000000000605171000000011498249
L20005300GM000202000004710513012MNC000HATHATBRAHIM                            VENTEJOURNAUX                           PLACEALIZA                                                                                                              10000000000000000000000147680000000000000000000000000000000000000000000000000000000000000000000000000000000000000000000000000000000000000000000000738400000000014029600
L20005300GM00020200000481644599ZAM000 CIFEDE                                  DiversFormation                         15RueAliIbenAbiTalebBelvedreTuni                                                                                        10000000000000000000000073542000000000000000000000000000000000000000000000000000000000000000000000000000000000000000000000000000000000000000000000367710000000006986490
L20005300GM00020200000491339982ZAP000 HATEMLATIRI                             ARCHITECTURE                            avenuedelarepubliquehammamsousse                                                                                        10000000000000000000000084956200000000000000000000000000000000000000000000000000000000000000000000000000000000000000000000000000000000000000000000424781000000008070839
L20005300GM00020200000501820475XAM000 BAECBUREAUAFRICAINETUDESCONSEIL         ETUDEETCONSEIL                          RsidenceKahia22metageApp252040Rads                                                                                      10000000000000000000000184004200000000000000000000000000000000000000000000000000000000000000000000000000000000000000000000000000000000000000000000920021000000017480399
L20005300GM00020200000511425798KAM000 ARCHIMED                                ARCHITECTURE                            7IBNELJAZAR1002LAFAYETTETUNIS                                                                                           10000000000000000000000048541200000000000000000000000000000000000000000000000000000000000000000000000000000000000000000000000000000000000000000000242706000000004611414
L20005300GM00020200000521862678MAM000 EXCELCONTROL                            CONTRLETECHNIQUE                        39BISRUELOUISBRAILLECITEJARDIN1003TUNIS                                                                                 10000000000000000000000030540000000000000000000000000000000000000000000000000000000000000000000000000000000000000000000000000000000000000000000000152700000000002901300
L20005300GM00020200000531031575HAM000 DDFAUDIT                                SOCIETEDAUDITETDECONSEILENGESTION       LESBERGESDULACTunis1053                                                                                                 10000000000000000000000653225200000000000000000000000000000000000000000000000000000000000000000000000000000000000000000000000000000000000000000003266126000000062056394
L20005300GM000202000005411231813YAM000QUEENINFO                               FORMATION                               ARIANACENTRE2080ARIANA                                                                                                  10000000000000000000000033915000000000000000000000000000000000000000000000000000000000000000000000000000000000000000000000000000000000000000000000169575000000003221925
L20005300GM00020200000551502016APM000 MaitreLiliaMistiri                      Avocat                                  2BisRueAhmedKhobtaniAriana                                                                                              10000000000000000000000132775000000000000000000000000000000000000000000000000000000000000000000000000000000000000000000000000000000000000000000000663875000000012613625
L20005300GM00020200000561848155DAM000 ManagementetFormation                   Formation                               8RuedIran1002Tunis                                                                                                      10000000000000000000000008925000000000000000000000000000000000000000000000000000000000000000000000000000000000000000000000000000000000000000000000044625000000000847875
L20005300GM000202000005711112214RAM000HANNIBALTRAINING                        FORMATION                               3RUEKENITRA2meETAGEAPPC5                                                                                                10000000000000000000000099008000000000000000000000000000000000000000000000000000000000000000000000000000000000000000000000000000000000000000000000495040000000009405760
L20005300GM00020200000581818499KAM000 lumireformation                         FORMATION                               49AVdelUMAimmelemyra2imesoukra                                                                                          10000000000000000000000081491200000000000000000000000000000000000000000000000000000000000000000000000000000000000000000000000000000000000000000000407456000000007741664
L20005300GM00020200000591945162WAM000 mwconsulting                            FORMATION                               10ruelhamadaramutuelleville                                                                                             10000000000000000000000113764000000000000000000000000000000000000000000000000000000000000000000000000000000000000000000000000000000000000000000000568820000000010807580
L20005300GM000202000006011040009PAC000MMS                                     EtudesFormationConseiletcommunication   08RuedelInde1002Tunis                                                                                                   10000000000000000000000035343000000000000000000000000000000000000000000000000000000000000000000000000000000000000000000000000000000000000000000000176715000000003357585
L20005300GM00020200000611837195CAP000 Matrehichemdammak                       AVOCAT                                  4ruechabanebhouri5imetageappn51TUINS                                                                                    10000000000000000000000025465000000000000000000000000000000000000000000000000000000000000000000000000000000000000000000000000000000000000000000000127325000000002419175
L20005300GM000202000006211041577YAM000INDESIGNENGINEERING                     ETUDEDUPROJET                           RueAbederazakechraiibiemlmanzah7Ariana                                                                                  10000000000000000000000168680800000000000000000000000000000000000000000000000000000000000000000000000000000000000000000000000000000000000000000000843404000000016024676
L20005300GM000202000006311007634TAM000FIRSTACADEMY                            FORMATION                               TUNIS                                                                                                                   10000000000000000000000148214400000000000000000000000000000000000000000000000000000000000000000000000000000000000000000000000000000000000000000000741072000000014080368
L20005300GM000202000006411438611HAM000ATAI                                    FORMATION                               RueLacBiwaImmeubleMariamBlocB1ertageBureaunB1LesbergesduLac11053tunis                                                   10000000000000000000000022015000000000000000000000000000000000000000000000000000000000000000000000000000000000000000000000000000000000000000000000110075000000002091425
L20005300GM00020200000651409661ZPA000 MAITREANISSWILEM                        AVOCAT                                  20RUEBABBNET                                                                                                            10000000000000000000000006133600000000000000000000000000000000000000000000000000000000000000000000000000000000000000000000000000000000000000000000030668000000000582692
L20005300GM00020200000661719094PAM000 CIFAT                                   FORMTION                                rsidencemeriambureauA15avenudelindependanceariana                                                                       10000000000000000000000020850000000000000000000000000000000000000000000000000000000000000000000000000000000000000000000000000000000000000000000000104250000000001980750
L20005300GM000202000006711081344DAM0002IINGENIERIEINDUSTRIELLE                BUREAUDETUDE                            338avenue7novembrebizerte                                                                                               10000000000000000000000084750000000000000000000000000000000000000000000000000000000000000000000000000000000000000000000000000000000000000000000000423750000000008051250
L20005300GM000202000006811076855PAM000IIFEINSTITUTINTERNATFORMAEDIT           FORMATION                               RUEDESENTREPRENEURSIMMGMGA2035                                                                                          10000000000000000000000010591000000000000000000000000000000000000000000000000000000000000000000000000000000000000000000000000000000000000000000000052955000000001006145
L20005300GM00020200000691750352WAM000 ADVANCIATRAINING                        DIAGNOSTIQUERESEAUX                     IMMGLOBALNET53RUEDESMINERAUXCHARGUIA1Tunis                                                                              10000000000000000000000202895000000000000000000000000000000000000000000000000000000000000000000000000000000000000000000000000000000000000000000001014475000000019275025
L20005300GM000202000007011450620KAP000INSTITUTDESSCIENCESECONOMIQUESETDEGESTIONFORMATIONCONTINUE                       47AVENUEHABIBBOURGUIBA1000TUNIS                                                                                         10000000000000000000000017136000000000000000000000000000000000000000000000000000000000000000000000000000000000000000000000000000000000000000000000085680000000001627920
L20005300GM000202000007111452754HAM000SOCIETECONSEILETDEFORMATION             SEMINAIREDEFORMATION                    RUEARABIESAOUDITEAPPARTEMENTN331meETAGE1002TUNIS                                                                        10000000000000000000000069972000000000000000000000000000000000000000000000000000000000000000000000000000000000000000000000000000000000000000000000349860000000006647340
L20005300GM000202000007211220548QAP000COMPETENCESPLUS                         FORMATION                               16RUEDELASOLIDARITEARIANASUPERIEURE                                                                                     10000000000000000000000031416000000000000000000000000000000000000000000000000000000000000000000000000000000000000000000000000000000000000000000000157080000000002984520
L20005300GM000202000007310587602DAM000INEL                                    ETUDEDEPROJET                           ZONEINDUSTRIELLECHOTRANA                                                                                                10000000000000000000000230528200000000000000000000000000000000000000000000000000000000000000000000000000000000000000000000000000000000000000000001152641000000021900179
T20005300GM0002020                                                                                                                                                                                                                             000000000000000000000000000000000000000000000000000000000000000000000000000000000000000000000000000000000000000000000000 000000000000000000000000000000000000000000000
